:020000040800F2
:100000000000022069260008E50E0008F30E000833
:10001000F90E0008FF0E0008050F000800000000A0
:100020000000000000000000000000000B0F0008AE
:10003000190F000800000000270F0008350F000806
:10004000B9260008B9260008B9260008B926000814
:10005000B9260008B9260008B9260008B926000804
:10006000B9260008B9260008B9260008B9260008F4
:10007000B9260008B9260008B9260008B9260008E4
:10008000B9260008B9260008B9260008B9260008D4
:10009000B9260008B9260008B9260008B9260008C4
:1000A000B9260008B9260008B9260008B9260008B4
:1000B000B9260008B9260008B9260008B9260008A4
:1000C000B9260008B9260008B9260008B926000894
:1000D000B9260008B9260008B9260008B926000884
:1000E000B9260008B9260008B9260008B926000874
:1000F000B9260008B9260008B9260008B926000864
:10010000B9260008B9260008B9260008B926000853
:10011000B9260008B9260008B9260008B926000843
:10012000B9260008B9260008B9260008B926000833
:10013000B9260008B9260008B9260008B926000823
:10014000B9260008B9260008B9260008B926000813
:10015000B9260008B9260008B9260008B926000803
:10016000B9260008B9260008B9260008B9260008F3
:10017000B9260008B9260008B926000800000000CA
:08018000B9260008B9260008A9
:1001880010B5054C237833B9044B13B10448AFF3C9
:1001980000800123237010BD0C0000200000000027
:1001A8001427000808B5034B1BB103490348AFF3F4
:1001B800008008BD0000000010000020142700087F
:1001C80053B94AB9002908BF00281CBF4FF0FF31B6
:1001D8004FF0FF3000F07AB9ADF1080C6DE904CEAC
:1001E80000F006F8DDF804E0DDE9022304B070470A
:1001F8002DE9F0478C460D460446089E002B51D148
:100208008A4217466DD9B2FA82FEBEF1000F0BD0B2
:10021800CEF1200C01FA0EF520FA0CFC02FA0EF7CA
:100228004CEA050C00FA0EF44FEA174A250CBCFB01
:10023800FAF81FFA87F90AFB18CC45EA0C4508FBBF
:1002480009F3AB420AD9ED1908F1FF3280F0238196
:10025800AB4240F22081A8F102083D44ED1AA4B255
:10026800B5FBFAF00AFB105544EA054400FB09F90E
:10027800A14509D9E41900F1FF3380F00A81A145AD
:1002880040F2078102383C44A4EB090440EA0840E4
:100298000021002E61D024FA0EF40023346073602C
:1002A800BDE8F0878B4207D9002E54D0002186E89C
:1002B80021000846BDE8F087B3FA83F1002940F031
:1002C8008E80AB4202D3824200F2FA80841A65EB38
:1002D80003050120AC46002E3FD086E81010BDE88B
:1002E800F08712B90127B7FBF2F7B7FA87FEBEF11C
:1002F800000F34D1EB1B3A0C1FFA87FC0121B3FB2A
:10030800F2F8250C02FB183345EA03450CFB08F309
:10031800AB4207D9ED1908F1FF3002D2AB4200F227
:10032800D1808046ED1AA3B2B5FBF2F002FB10555E
:1003380043EA05440CFB00FCA44507D9E41900F185
:10034800FF3302D2A44500F2B8801846A4EB0C048F
:1003580040EA08409DE731463046BDE8F087CEF1D7
:10036800200405FA0EF307FA0EF720FA04F83A0CFF
:1003780025FA04F448EA0308B4FBF2F14FEA1845F9
:1003880002FB11441FFA87FC45EA044501FB0CF304
:10039800AB4200FA0EF409D9ED1901F1FF3080F0F3
:1003A8008A80AB4240F2878002393D44EB1A1FFA3B
:1003B80088F5B3FBF2F002FB103345EA034500FB76
:1003C8000CF3AB4207D9ED1900F1FF386FD2AB42FD
:1003D8006DD902383D44EB1A40EA01418FE7C1F17B
:1003E800200722FA07F88B4005FA01F448EA0303CC
:1003F80020FA07FE4FEA134CFD404EEA040EB5FB07
:10040800FCF94FEA1E440CFB19551FFA83F844EA1D
:10041800054509FB08F4AC4202FA01F200FA01FAB8
:1004280008D9ED1809F1FF3043D2AC4241D9A9F1FE
:1004380002091D442D1B1FFA8EFEB5FBFCF00CFBB8
:1004480010554EEA054400FB08F8A04507D9E41802
:1004580000F1FF3529D2A04527D902381C4440EACB
:100468000940A4EB0804A0FB02894C45C6464D464A
:1004780015D312D056B1BAEB0E0364EB050404FA97
:1004880007F7CB401F43CC40376074600021BDE8BC
:10049800F0871846F8E69046E0E6C245EAD2B8EB9F
:1004A800020E69EB03050138E4E72846D7E7404622
:1004B80091E78146BEE7014678E702383C4445E7C4
:1004C800084608E7A8F102083D442BE7704700BF3B
:1004D80080B400AF144A144BDB6823F08073D360F8
:1004E800114A114BDB6843F08073D3600F4A0F4BFE
:1004F8001B6823F0010313600C4A0C4B1B6843F084
:1005080001031360094B00225A6000BF00BF00BFFF
:10051800064B5B68002B01D0002300E0012318463E
:10052800BD465DF8047B7047F0ED00E0001000E088
:1005380080B584B000AF78600C4B5B68FB6001F05D
:1005480061FC02460A4BA3FB02239B0C7A6802FB60
:1005580003F37B6000BF054B5A68FB68D21A7B68BF
:100568009A42F8D300BF1037BD4680BD001000E0A6
:1005780083DE1B4380B582B000AF00237B6001227D
:100588001021134801F018F80A20FFF7D1FF0022C4
:1005980010210F4801F010F800BF08210C4800F0A6
:1005A800F3FF0346002BF8D005E07B6801337B603E
:1005B8000120FFF7BDFF0821054800F0E5FF0346CD
:1005C800002BF2D17B6818460837BD4680BD00BFB6
:1005D8000000024080B582B000AF00237B6001229A
:1005E8004021134800F0E8FF0A20FFF7A1FF00228E
:1005F80040210F4800F0E0FF00BF20210C4800F028
:10060800C3FF0346002BF8D005E07B6801337B600D
:100618000120FFF78DFF2021054800F0B5FF0346B4
:10062800002BF2D17B6818460837BD4680BD00BF55
:100638000000024080B582B000AF00237B60012239
:100648004021134800F0B8FF0A20FFF771FF00228D
:1006580040210F4800F0B0FF00BF20210C4800F0F7
:1006680093FF0346002BF8D005E07B6801337B60DD
:100678000120FFF75DFF2021054800F085FF0346B4
:10068800002BF2D17B6818460837BD4680BD00BFF5
:100698000004024080B500AF01220121094800F0A2
:1006A8008BFF00220221074800F086FF0022042168
:1006B800044800F081FF01220821024800F07CFF75
:1006C80000BF80BD0010024080B500AF00220121AC
:1006D800094800F071FF01220221074800F06CFF71
:1006E80001220421044800F067FF00220821024883
:1006F80000F062FF00BF80BD0010024080B500AF6F
:1007080000220121094800F057FF00220221074872
:1007180000F052FF00220421044800F04DFF00229F
:100728000821024800F048FF00BF80BD00100240C9
:1007380080B500AF00F016FC00F0C8F900F08AFAA6
:1007480000F02EFAFFF7C4FE0021A54801F092FB45
:10075800A44B4FF482625A634FF47A7000F074FC31
:10076800FFF708FF0246A04B1A609F4B1B689F4A81
:10077800A2FB03235B099AB29D4B1A80FFF72AFF5D
:1007880002469C4B1A609B4B1B68984AA2FB0323AA
:100798005B099AB2984B1A80FFF74CFF0246974BB9
:1007A8001A60964B1B68914AA2FB03235B099AB215
:1007B800934B1A8001224FF40051924800F0FCFE3E
:1007C8000121914800F0E0FE0346002B0FD000BF46
:1007D80001218D4800F0D8FE0346002BF8D1642093
:1007E80000F032FC894B1B680133884A1360874B41
:1007F8001B68002B03F00103B8BF5B42012BAFD18C
:1008080000220121824800F0D7FE012202218048FF
:1008180000F0D2FE012204217D4800F0CDFE002226
:1008280008217B4800F0C8FE01224FF4804175483A
:1008380000F0C2FE6E4B1B88042B02D8FFF75EFF48
:10084800FEE76D4B1B880F2B8AD9D22000F0FCFBEA
:10085800704B1B6801336F4A13606E4B1B68052B86
:100868007FF77EAF642000F0EFFBFFF747FF012220
:100878004FF40041634800F09FFE642000F0E4FB61
:10088800584B40F20E625A63C82000F0DDFBFFF7B8
:10089800D1FE0246594B1A60584B1B68534AA2FBBB
:1008A80003235B099AB2564B1A800FE0FFF7C2FE8A
:1008B8000246524B1A60514B1B684C4AA2FB032359
:1008C8005B099AB24E4B1A80FFF7E4FE4C4B1B882B
:1008D8000D2BEBD8FFF712FFC82000F0B5FB414BFA
:1008E80040F24C425A63C82000F0AEFBFFF7A2FE6C
:1008F8000246424B1A60414B1B683C4AA2FB032349
:100908005B099AB23E4B1A800FE0FFF793FE02464E
:100918003A4B1A60394B1B68344AA2FB03235B0924
:100928009AB2374B1A80FFF7B5FE354B1B88072B59
:10093800EBD8FFF7E3FEC82000F086FB304B1B889E
:10094800022BFBD9274B4FF43E725A63C82000F0A4
:100958007BFBFFF79FFE00BFFFF7D0FEC82000F02B
:1009680073FBFFF737FE0246224B1A60214B1B68C8
:100978001E4AA2FB03235B099AB21F4B1A8016E09A
:10098800FFF728FE02461B4B1A601A4B1B68174AD2
:10099800A2FB03235B099AB2174B1A80114B40F252
:1009A80046525A63C82000F04FFBFFF78DFE124BEA
:1009B8001B88022BE4D9FFF7A1FEC82000F044FBF6
:1009C800FFF738FE02460D4B1A600C4B1B68074AAE
:1009D800A2FB03235B099AB2094B1A8030E000BFDF
:1009E80030000020000800407000002009CB3D8D39
:1009F8007C00002080000020740000207800002087
:100A080076000020000C0240000002402800002070
:100A1800001002402C000020FFF70CFE0246264B77
:100A28001A60254B1B68254AA2FB03235B099AB26F
:100A3800234B1A80234B4FF43E725A63FFF72AFE6A
:100A48001F4B1B88062BE7D9FFF758FEC82000F07C
:100A5800FBFA1C4B40F24C425A63C82000F0F4FAEF
:100A6800FFF7E8FD0246144B1A60134B1B68134A44
:100A7800A2FB03235B099AB2114B1A800FE0FFF720
:100A8800D9FD02460C4B1A600B4B1B680B4AA2FBA4
:100A980003235B099AB20A4B1A80FFF7FBFD084B48
:100AA8001B88072BEBD8FFF729FE01224FF40041E2
:100AB800054800F081FDF8E77800002009CB3D8D5E
:100AC8007600002000080040000C024080B594B079
:100AD80000AF07F1200330220021184601F00EFE76
:100AE80007F10C0300221A605A609A60DA601A61F2
:100AF8000023BB60284A284B1B6C43F080531364C7
:100B0800254B1B6C03F08053BB60BB6800237B60E4
:100B1800224A224B1B6843F4804313601F4B1B6817
:100B280003F480437B607B6802233B620123FB6202
:100B380010233B630223BB630023FB6308233B644E
:100B4800A8237B640223BB640423FB6407F120030E
:100B5800184600F04BFD0346002B01D000F032F997
:100B68000F23FB6002233B6100237B614FF4A053FA
:100B7800BB614FF48053FB6107F10C030521184654
:100B880000F0A4FF0346002B01D000F01BF900BFC2
:100B98005037BD4680BD00BF00380240007000409D
:100BA80080B58AB000AF07F1200300221A605A60AE
:100BB8003B1D00221A605A609A60DA601A615A6115
:100BC8009A61224B224A1A60204B53225A601F4BCB
:100BD80000229A601D4B44F61F62DA601B4B00220C
:100BE8001A611A4B00229A61184801F017F9034656
:100BF800002B01D000F0E6F800233B6200237B6263
:100C080007F120031946114801F0AEFC0346002BFA
:100C180001D000F0D7F860237B600023BB6000237D
:100C2800FB6000237B613B1D00221946074801F049
:100C38005FF90346002B01D000F0C4F8034800F028
:100C480013F900BF2837BD4680BD00BF3000002023
:100C58000008004080B58AB000AF07F114030022F5
:100C68001A605A609A60DA601A6100233B61504A40
:100C78004F4B1B6B43F0100313634D4B1B6B03F07F
:100C880010033B613B690023FB60494A484B1B6BDF
:100C980043F001031363464B1B6B03F00103FB6036
:100CA800FB680023BB60424A414B1B6B43F00803BF
:100CB80013633F4B1B6B03F00803BB60BB68002347
:100CC8007B603B4A3A4B1B6B43F002031363384B80
:100CD8001B6B03F002037B607B6800220F21354801
:100CE80000F06AFC00225021334800F065FC002225
:100CF8004FF46041314800F05FFC00224021304849
:100D080000F05AFC0F237B610123BB610223FB61C6
:100D180003233B6207F114031946264800F09AFAA8
:100D280029237B610023BB610023FB6107F11403C6
:100D38001946214800F08EFA50237B610123BB61DC
:100D48000223FB6103233B6207F1140319461A4887
:100D580000F080FA4FF460437B610123BB610223FA
:100D6800FB6103233B6207F114031946134800F0A3
:100D780071FA20237B610023BB610023FB6107F12B
:100D8800140319460E4800F065FA40237B610123DD
:100D9800BB610223FB6103233B6207F1140319467D
:100DA800074800F057FA00BF2837BD4680BD00BF8E
:100DB800003802400010024000000240000C0240CF
:100DC8000004024080B400AF00BFBD465DF8047B5C
:100DD8007047000080B483B000AF00237B60104AE6
:100DE8000F4B5B6C43F4804353640D4B5B6C03F413
:100DF80080437B607B6800233B60094A084B1B6C7F
:100E080043F080531364064B1B6C03F080533B6024
:100E18003B6800BF0C37BD465DF8047B704700BFD8
:100E28000038024080B485B000AF78607B681B68EA
:100E38000B4A93420DD10023FB600A4A094B1B6CF5
:100E480043F004031364074B1B6C03F00403FB60BB
:100E5800FB6800BF1437BD465DF8047B704700BFD0
:100E6800000800400038024080B588B000AF7860C4
:100E780007F10C0300221A605A609A60DA601A615E
:100E88007B681B68124A93421ED10023BB60114A3B
:100E9800104B1B6B43F0080313630E4B1B6B03F0E3
:100EA8000803BB60BB684FF48053FB6002233B61BF
:100EB80000237B610023BB610223FB6107F10C0364
:100EC8001946054800F0C6F900BF2037BD4680BD69
:100ED8000008004000380240000C024080B400AF17
:100EE80000BFBD465DF8047B704780B400AFFEE7E5
:100EF80080B400AFFEE780B400AFFEE780B400AF77
:100F0800FEE780B400AF00BFBD465DF8047B7047C4
:100F180080B400AF00BFBD465DF8047B704780B465
:100F280000AF00BFBD465DF8047B704780B500AFD9
:100F380000F06AF800BF80BD80B400AF084A084BD3
:100F4800D3F8883043F47003C2F88830044B4FF06C
:100F580000629A6000BFBD465DF8047B704700BF21
:100F680000ED00E080B500AF0E4A0E4B1B6843F45D
:100F7800007313600B4A0B4B1B6843F480631360C8
:100F8800084A084B1B6843F480731360032000F081
:100F98002DF9002000F008F8FFF71CFF0023184681
:100FA80080BD00BF003C024080B582B000AF7860D1
:100FB800124B1A68124B1B7819464FF47A73B3FB1D
:100FC800F1F3B2FBF3F3184600F037F90346002BB0
:100FD80001D001230EE07B680F2B0AD80022796824
:100FE8004FF0FF3000F00DF9064A7B6813600023CC
:100FF80000E0012318460837BD4680BD00000020E8
:10100800080000200400002080B400AF064B1B78C5
:101018001A46064B1B681344044A136000BFBD46BA
:101028005DF8047B704700BF0800002084000020A2
:1010380080B400AF034B1B681846BD465DF8047BBF
:10104800704700BF8400002080B584B000AF78608E
:10105800FFF7EEFFB8607B68FB60FB68B3F1FF3F0A
:1010680005D0094B1B781A46FB681344FB6000BF88
:10107800FFF7DEFF0246BB68D21AFB689A42F7D335
:1010880000BF1037BD4680BD0800002080B485B081
:1010980000AF78607B6803F00703FB600C4BDB68EC
:1010A800BB60BA684FF6FF031340BB60FB681A02C7
:1010B800BB68134343F0BF6343F40033BB60044A87
:1010C800BB68D36000BF1437BD465DF8047B70472A
:1010D80000ED00E080B400AF044BDB681B0A03F0AE
:1010E80007031846BD465DF8047B704700ED00E035
:1010F80080B483B000AF03463960FB7197F90730BD
:10110800002B0ADB0D4997F907303A68D2B2120171
:10111800D2B20B4483F800230AE00949FB7903F0B3
:101128000F03043B3A68D2B21201D2B20B441A76CA
:1011380000BF0C37BD465DF8047B704700E100E056
:1011480000ED00E080B489B000AFF860B9607A6063
:10115800FB6803F00703FB61FB69C3F10703042B7A
:1011680028BF0423BB61FB690433062B02D9FB6942
:10117800033B00E000237B610122BB6902FA03F311
:101188005A1EBB681A407B699A4001217B6901FAA3
:1011980003F3591E7B680B40134318462437BD469A
:1011A8005DF8047B7047000080B582B000AF7860BE
:1011B8007B68013BB3F1807F01D301230FE00A4A2A
:1011C8007B68013B53600F214FF0FF30FFF790FF22
:1011D800054B00229A60044B07221A600023184628
:1011E8000837BD4680BD00BF10E000E080B582B082
:1011F80000AF78607868FFF749FF00BF0837BD4641
:1012080080BD80B586B000AF0346B9607A60FB73D5
:1012180000237B61FFF75EFF78617A68B9687869B7
:10122800FFF790FF024697F90F3011461846FFF76F
:101238005FFF00BF1837BD4680BD80B582B000AFE4
:1012480078607868FFF7B0FF034618460837BD4650
:1012580080BD000080B489B000AF78603960002399
:101268007B6100233B610023BB610023FB616BE1D1
:101278000122FB6902FA03F37B613B681A687B6908
:1012880013403B613A697B699A4240F05A813B6856
:101298005B68012B0BD03B685B68022B07D03B686F
:1012A8005B68112B03D03B685B68122B30D17B68DD
:1012B8009B68BB61FB695B00032202FA03F3DB4313
:1012C800BA691340BB613B68DA68FB695B0002FAE4
:1012D80003F3BA691343BB617B68BA699A607B6898
:1012E8005B68BB610122FB6902FA03F3DB43BA695D
:1012F8001340BB613B685B681B0903F00102FB6993
:1013080002FA03F3BA691343BB617B68BA695A608E
:101318007B68DB68BB61FB695B00032202FA03F3AD
:10132800DB43BA691340BB613B689A68FB695B00A1
:1013380002FA03F3BA691343BB617B68BA69DA60DE
:101348003B685B68022B03D03B685B68122B23D198
:10135800FB69DA087B68083253F82230BB61FB6905
:1013680003F007039B000F2202FA03F3DB43BA6979
:101378001340BB613B681A69FB6903F007039B00D4
:1013880002FA03F3BA691343BB61FB69DA087B68A5
:101398000832B96943F822107B681B68BB61FB6996
:1013A8005B00032202FA03F3DB43BA691340BB6113
:1013B8003B685B6803F00302FB695B0002FA03F316
:1013C800BA691343BB617B68BA691A603B685B689A
:1013D80003F08053002B00F0B4800023FB605F4AC9
:1013E8005E4B5B6C43F4804353645C4B5B6C03F46F
:1013F8008043FB60FB685A4AFB699B08023352F83A
:101408002330BB61FB6903F003039B000F2202FA40
:1014180003F3DB43BA691340BB617B68514A9342CB
:101428002BD07B68504A934225D07B684F4A934221
:101438001FD07B684E4A934219D07B684D4A93422D
:1014480013D07B684C4A93420DD07B684B4A934239
:1014580007D07B684A4A934201D107230EE008234C
:101468000CE006230AE0052308E0042306E0032332
:1014780004E0022302E0012300E00023FA6902F0FD
:10148800030292009340BA691343BB613449FB6974
:101498009B080233BA6941F823203A4B1B68BB61A9
:1014A8003B69DB43BA691340BB613B685B6803F483
:1014B8008033002B03D0BA693B691343BB61314ABF
:1014C800BB6913602F4B5B68BB613B69DB43BA693F
:1014D8001340BB613B685B6803F40033002B03D007
:1014E800BA693B691343BB61264ABB695360254B04
:1014F8009B68BB613B69DB43BA691340BB613B68CE
:101508005B6803F48013002B03D0BA693B6913436B
:10151800BB611C4ABB6993601A4BDB68BB613B69C2
:10152800DB43BA691340BB613B685B6803F4001393
:10153800002B03D0BA693B691343BB61114ABB69ED
:10154800D360FB690133FB61FB690F2B7FF690AE1B
:1015580000BF2437BD465DF8047B70470038024061
:101568000038014000000240000402400008024028
:10157800000C024000100240001402400018024013
:10158800001C0240003C014080B485B000AF786088
:101598000B467B807B681A697B881340002B02D03E
:1015A8000123FB7301E00023FB73FB7B1846143710
:1015B800BD465DF8047B704780B483B000AF7860A7
:1015C8000B467B8013467B707B78002B03D07A8890
:1015D8007B689A6103E07B881A047B689A6100BF84
:1015E8000C37BD465DF8047B7047000080B586B0B7
:1015F80000AF78607B68002B01D101235BE27B6838
:101608001B6803F00103002B75D0A34B9B6803F004
:101618000C03042B0CD0A04B9B6803F00C03082B85
:1016280012D19D4B5B6803F48003B3F5800F0BD197
:10163800994B1B6803F40033002B5BD07B685B6815
:10164800002B57D1012336E27B685B68B3F5803FF6
:1016580006D1914A904B1B6843F4803313601DE018
:101668007B685B68B3F5A02F0CD18B4A8A4B1B684B
:1016780043F480231360884A874B1B6843F4803304
:1016880013600BE0844A844B1B6823F48033136097
:10169800814A814B1B6823F4802313607B685B6855
:1016A800002B13D0FFF7C4FC386108E0FFF7C0FC3B
:1016B80002463B69D31A642B01D90323FBE1764B1D
:1016C8001B6803F40033002BF0D014E0FFF7B0FCE4
:1016D800386108E0FFF7ACFC02463B69D31A642B7B
:1016E80001D90323E7E16C4B1B6803F40033002B9B
:1016F800F0D100E000BF7B681B6803F00203002BF9
:1017080063D0654B9B6803F00C03002B0BD0624B36
:101718009B6803F00C03082B1CD15F4B5B6803F438
:101728008003002B16D15C4B1B6803F00203002BCF
:1017380005D07B68DB68012B01D00123BBE156494A
:10174800554B1B6823F0F8027B681B69DB001343C9
:101758000B603AE07B68DB68002B20D04F4B0122FE
:101768001A60FFF765FC386108E0FFF761FC024684
:101778003B69D31A022B01D903239CE1464B1B6812
:1017880003F00203002BF0D04349434B1B6823F0BE
:10179800F8027B681B69DB0013430B6015E03F4BC5
:1017A80000221A60FFF744FC386108E0FFF740FCAC
:1017B80002463B69D31A022B01D903237BE1364B3E
:1017C8001B6803F00203002BF0D17B681B6803F051
:1017D8000803002B30D07B685B69002B16D0304B98
:1017E80001221A60FFF724FC386108E0FFF720FCAB
:1017F80002463B69D31A022B01D903235BE1264B2E
:101808005B6F03F00203002BF0D015E0244B00229D
:101818001A60FFF70DFC386108E0FFF709FC024683
:101828003B69D31A022B01D9032344E11A4B5B6F9E
:1018380003F00203002BF0D17B681B6803F004035C
:10184800002B00F0A0800023FB75134B1B6C03F0EA
:101858008053002B0FD10023BB600F4A0E4B1B6C2B
:1018680043F0805313640C4B1B6C03F08053BB6034
:10187800BB680123FB750B4B1B6803F48073002BBB
:1018880021D1084A074B1B6843F480731360FFF7A4
:10189800CFFB386111E000BF00380240000047422A
:1018A800800E474200700040FFF7C2FB02463B69CA
:1018B800D31A022B01D90323FDE0814B1B6803F4E3
:1018C8008073002BF0D07B689B68012B06D17D4A82
:1018D8007C4B1B6F43F0010313671CE07B689B681C
:1018E800052B0CD1774A774B1B6F43F00403136722
:1018F800744A744B1B6F43F0010313670BE0714A82
:10190800704B1B6F23F0010313676E4A6D4B1B6FFF
:1019180023F0040313677B689B68002B15D0FFF73F
:1019280087FB38610AE0FFF783FB02463B69D31A5D
:1019380041F28832934201D90323BCE0614B1B6F0B
:1019480003F00203002BEED014E0FFF771FB3861BF
:101958000AE0FFF76DFB02463B69D31A41F2883271
:10196800934201D90323A6E0564B1B6F03F00203F1
:10197800002BEED1FB7D012B05D1524A514B1B6C3C
:1019880023F0805313647B689B69002B00F09280DE
:101998004C4B9B6803F00C03082B5CD07B689B695D
:1019A800022B41D1484B00221A60FFF741FB3861F6
:1019B80008E0FFF73DFB02463B69D31A022B01D929
:1019C800032378E03F4B1B6803F00073002BF0D132
:1019D8003C497B68DA697B681B6A1A437B685B6AE7
:1019E8009B011A437B689B6A5B08013B1B041A43F3
:1019F8007B68DB6A1B0613434B60334B01221A607A
:101A0800FFF716FB386108E0FFF712FB02463B6957
:101A1800D31A022B01D903234DE02A4B1B6803F08C
:101A28000073002BF0D045E0274B00221A60FFF727
:101A3800FFFA386108E0FFF7FBFA02463B69D31A60
:101A4800022B01D9032336E01E4B1B6803F00073F9
:101A5800002BF0D12EE07B689B69012B01D101237B
:101A680029E0184B5B68FB60FB6803F480027B6825
:101A7800DB699A421CD1FB6803F03F027B681B6A52
:101A88009A4215D1FA6847F6C07313407A68526AC9
:101A980093420DD1FB6803F440327B689B6A9A42FB
:101AA80006D1FB6803F070627B68DB6A9A4201D05A
:101AB800012300E0002318461837BD4680BD00BF4B
:101AC80000700040003802406000474280B584B092
:101AD80000AF786039607B68002B01D10123CCE02E
:101AE800684B1B6803F00F023B689A420CD2654BA7
:101AF8003A68D2B21A70634B1B6803F00F023B6856
:101B08009A4201D00123B8E07B681B6803F0020306
:101B1800002B20D07B681B6803F00403002B05D042
:101B2800594A594B9B6843F4E05393607B681B68A0
:101B380003F00803002B05D0534A534B9B6843F42A
:101B4800604393605049504B9B6823F0F0027B68D8
:101B58009B6813438B607B681B6803F00103002BB1
:101B680044D07B685B68012B07D1474B1B6803F4A3
:101B78000033002B19D101237FE07B685B68022BBF
:101B880003D07B685B68032B07D13F4B1B6803F0CE
:101B98000073002B09D101236FE03B4B1B6803F056
:101BA8000203002B01D1012367E03749364B9B68BC
:101BB80023F003027B685B6813438B60FFF738FAF6
:101BC800F8600AE0FFF734FA0246FB68D31A41F2DC
:101BD8008832934201D903234FE02B4B9B6803F0D3
:101BE8000C027B685B689B009A42EBD1254B1B6813
:101BF80003F00F023B689A420CD9224B3A68D2B2E2
:101C08001A70204B1B6803F00F023B689A4201D000
:101C1800012332E07B681B6803F00403002B08D023
:101C28001949194B9B6823F4E0527B68DB6813431E
:101C38008B607B681B6803F00803002B09D01249EE
:101C4800114B9B6823F460427B681B69DB001343DC
:101C58008B6000F021F801460B4B9B681B0903F0D1
:101C68000F030A4AD35C21FA03F3094A1360094BAC
:101C78001B681846FFF798F9002318461037BD4629
:101C880080BD00BF003C0240003802402C270008FD
:101C980000000020040000202DE9F04F87B000AFBD
:101CA8000022FA6000227A610022BA6000223A61BA
:101CB800514A926802F00C02042A07D0082A08D078
:101CC800002A40F090804D4B3B618FE04C4B3B61CC
:101CD8008CE0494A526802F03F02FA60464A52686C
:101CE80002F48002002A23D0434B5B689B094FF023
:101CF800000440F2FF114FF0000203EA010304EA76
:101D080002043F4A02FB04F1002202FB03F20A44E8
:101D18003B49A3FB010153181946FB684FF0000427
:101D28001A462346FEF74CFA03460C467B614CE004
:101D3800314A5268920911464FF0000240F2FF15ED
:101D48004FF0000605EA010506EA02062946324672
:101D58004FEA421B4BEAD16B4FEA411A51465A46A9
:101D6800AA46B34655465E464D1B62EB0606294613
:101D78003246940144EA91648B015B1A64EB0204D5
:101D88004FEAC40949EA53794FEAC30843464C4627
:101D980055465E46ED1846EB04062B463446A2022D
:101DA8007A607A6842EA93527A609B023B6097E8CD
:101DB800180018462146FB684FF000041A462346CF
:101DC800FEF7FEF903460C467B610B4B5B681B0C68
:101DD80003F0030301335B00BB607A69BB68B2FBA5
:101DE800F3F33B6102E0054B3B6100BF3B691846DA
:101DF8001C37BD46BDE8F08F003802400024F400CF
:101E080040787D0180B400AF034B1B681846BD467F
:101E18005DF8047B704700BF0000002080B582B0E9
:101E280000AF78607B68002B01D101231DE07B683F
:101E380093F83D30DBB2002B06D17B68002283F893
:101E48003C207868FEF7EEFF7B68022283F83D208D
:101E58007B681A687B6804331946104600F00EF94F
:101E68007B68012283F83D20002318460837BD46C9
:101E780080BD000080B584B000AF786039607B68B1
:101E88001B6801223968184600F048FB7B681B680C
:101E9800154A934204D07B681B68144A934201D1C7
:101EA800012300E00023002B07D07B681B687A68B9
:101EB8001268526C42F400425A647B681B689B6843
:101EC80003F00703FB60FB68062B07D07B681B68E1
:101ED8007A681268126842F001021A6000231846F4
:101EE8001037BD4680BD00BF00000140000401401E
:101EF80080B584B000AFF860B9607A60FB6893F889
:101F08003C30012B01D10223B4E0FB68012283F8A5
:101F18003C20FB68022283F83D207B680C2B00F2F2
:101F28009F8001A252F823F0651F0008692000086D
:101F38006920000869200008A51F0008692000081A
:101F48006920000869200008E71F000869200008C8
:101F5800692000086920000827200008FB681B6822
:101F6800B968184600F02AF9FB681B68FA68126815
:101F7800926942F008029A61FB681B68FA68126865
:101F8800926922F004029A61FB681B68FA68126879
:101F98009169BA6812690A439A6162E0FB681B6832
:101FA800B968184600F07AF9FB681B68FA68126885
:101FB800926942F400629A61FB681B68FA681268C9
:101FC800926922F480629A61FB681B68FA68126859
:101FD8009169BA68126912020A439A6141E0FB6882
:101FE8001B68B968184600F0CFF9FB681B68FA68E7
:101FF8001268D26942F00802DA61FB681B68FA6865
:102008001268D26922F00402DA61FB681B68FA6878
:102018001268D169BA6812690A43DA6121E0FB687B
:102028001B68B968184600F023FAFB681B68FA6851
:102038001268D26942F40062DA61FB681B68FA68C8
:102048001268D26922F48062DA61FB681B68FA6858
:102058001268D169BA68126912020A43DA6100E0AB
:1020680000BFFB68012283F83D20FB68002283F84B
:102078003C20002318461037BD4680BD80B485B08B
:1020880000AF786039607B681B68FB607B68404AFA
:10209800934213D07B68B3F1804F0FD07B683D4AE1
:1020A80093420BD07B683C4A934207D07B683B4AFB
:1020B800934203D07B683A4A934208D1FB6823F0E5
:1020C8007003FB603B685B68FA681343FB607B68DE
:1020D8002F4A93422BD07B68B3F1804F27D07B687F
:1020E8002C4A934223D07B682B4A93421FD07B68AB
:1020F8002A4A93421BD07B68294A934217D07B68AF
:10210800284A934213D07B68274A93420FD07B68B2
:10211800264A93420BD07B68254A934207D07B68B6
:10212800244A934203D07B68234A934208D1FB6830
:1021380023F44073FB603B68DB68FA681343FB6079
:10214800FB6823F080023B685B691343FB607B6894
:10215800FA681A603B689A687B68DA623B681A68B2
:102168007B689A627B680A4A934203D07B680C4A70
:10217800934203D13B681A697B681A637B68012222
:102188005A6100BF1437BD465DF8047B704700BF35
:10219800000001400004004000080040000C00401E
:1021A8000004014000400140004401400048014053
:1021B80000180040001C00400020004080B487B098
:1021C80000AF786039607B681B6A23F001027B6886
:1021D8001A627B681B6A7B617B685B683B617B6812
:1021E8009B69FB60FB6823F07003FB60FB6823F0CE
:1021F8000303FB603B681B68FA681343FB607B6959
:1022080023F002037B613B689B687A6913437B6117
:102218007B68204A934203D07B681F4A93420CD1C3
:102228007B6923F008037B613B68DB687A691343A9
:102238007B617B6923F004037B617B68154A9342C9
:1022480003D07B68144A934211D13B6923F480730D
:102258003B613B6923F400733B613B685B693A6906
:1022680013433B613B689B693A6913433B617B6855
:102278003A695A607B68FA689A613B685A687B6871
:102288005A637B687A691A6200BF1C37BD465DF8DD
:10229800047B7047000001400004014080B487B00F
:1022A80000AF786039607B681B6A23F010027B6896
:1022B8001A627B681B6A7B617B685B683B617B6831
:1022C8009B69FB60FB6823F4E043FB60FB6823F435
:1022D8004073FB603B681B681B02FA681343FB6092
:1022E8007B6923F020037B613B689B681B017A694B
:1022F80013437B617B68224A934203D07B68214A5F
:1023080093420DD17B6923F080037B613B68DB68D6
:102318001B017A6913437B617B6923F040037B616E
:102328007B68174A934203D07B68164A934213D1BD
:102338003B6923F480633B613B6923F400633B61A1
:102348003B685B699B003A6913433B613B689B6947
:102358009B003A6913433B617B683A695A607B6822
:10236800FA689A613B685A687B689A637B687A69FD
:102378001A6200BF1C37BD465DF8047B704700BF7A
:10238800000001400004014080B487B000AF7860CD
:1023980039607B681B6A23F480727B681A627B68E9
:1023A8001B6A7B617B685B683B617B68DB69FB6000
:1023B800FB6823F07003FB60FB6823F00303FB60FA
:1023C8003B681B68FA681343FB607B6923F400735E
:1023D8007B613B689B681B027A6913437B617B685E
:1023E800214A934203D07B68204A93420DD17B69EE
:1023F80023F400637B613B68DB681B027A69134343
:102408007B617B6923F480637B617B68164A934216
:1024180003D07B68154A934213D13B6923F4805358
:102428003B613B6923F400533B613B685B691B01DB
:102438003A6913433B613B689B691B013A69134343
:102448003B617B683A695A607B68FA68DA613B6885
:102458005A687B68DA637B687A691A6200BF1C373E
:10246800BD465DF8047B7047000001400004014050
:1024780080B487B000AF786039607B681B6A23F44A
:1024880080527B681A627B681B6A3B617B685B6869
:102498007B617B68DB69FB60FB6823F4E043FB60DE
:1024A800FB6823F44073FB603B681B681B02FA68F7
:1024B8001343FB603B6923F400533B613B689B6813
:1024C8001B033A6913433B617B68124A934203D06A
:1024D8007B68114A934209D17B6923F480437B616D
:1024E8003B685B699B017A6913437B617B687A6906
:1024F8005A607B68FA68DA613B685A687B681A64D4
:102508007B683A691A6200BF1C37BD465DF8047BD8
:10251800704700BF000001400004014080B487B04C
:1025280000AFF860B9607A60BB6803F01F0301224E
:1025380002FA03F37B61FB681A6A7B69DB431A4082
:10254800FB681A62FB681A6ABB6803F01F037968A4
:1025580001FA03F31A43FB681A6200BF1C37BD4631
:102568005DF8047B7047000080B485B000AF7860E8
:1025780039607B6893F83C30012B01D102235AE083
:102588007B68012283F83C207B68022283F83D2087
:102598007B681B685B68FB607B681B689B68BB602B
:1025A800FB6823F07003FB603B681B68FA68134301
:1025B800FB607B681B68FA685A607B681B68214A65
:1025C800934222D07B681B68B3F1804F1DD07B6893
:1025D8001B681D4A934218D07B681B681B4A9342AC
:1025E80013D07B681B681A4A93420ED07B681B681D
:1025F800184A934209D07B681B68174A934204D053
:102608007B681B68154A93420CD1BB6823F0800392
:10261800BB603B685B68BA681343BB607B681B6838
:10262800BA689A607B68012283F83D207B680022A3
:1026380083F83C20002318461437BD465DF8047B18
:10264800704700BF0000014000040040000800403F
:10265800000C004000040140004001400018004008
:10266800DFF834D0002103E00C4B5B5843500431B1
:102678000B480C4B42189A42F6D30B4A02E000234F
:1026880042F8043B094B9A42F9D3FEF755FC00F097
:1026980011F8FEF74DF87047000002204C2700089B
:1026A800000000200C0000200C0000208800002002
:1026B800FEE7000070B50D4E0D4CA41BA4100025BC
:1026C800A54209D10B4E0C4C00F020F8A41BA41015
:1026D8000025A54205D170BD56F82530984701352B
:1026E800EEE756F8253098470135F2E74427000809
:1026F80044270008442700084827000802440346E6
:10270800934200D1704703F8011BF9E7F8B500BF01
:10271800F8BC08BC9E467047F8B500BFF8BC08BCBA
:042728009E46704712
:10272C000000000000000000010203040607080975
:08273C00BCDAFF7F0100000080
:04274400AD010008DB
:0427480089010008FB
:0C274C000024F400100000000100000058
:040000050800266960
:00000001FF
